:0400000080313428EF
:100008007E14803100308600003087000B1F0D28D9
:100018000E2832284101961E122813281B288C1EF0
:10002800162817281B288631A326803132281C1C45
:100038001E281F282728121C222823282728873112
:100048002227803132289C1C2A282B283228921CEF
:100058002E282F2832288631B22680317E100900BA
:1000680080313628F901FA012030840000308500FB
:100078001C308631FD2680317E10400184315F2C92
:10008800F8005A2A4001141694119A1114111A11E1
:1000980094109A1014101A147A2A40011416941500
:1000A800141514101A1094109A147A2A40019415F1
:1000B800941414121A1214101A1014111A157A2AF8
:1000C800400114161415941414101A1094119A154A
:1000D8007A2AFA0101304001B8007A2A7A08003AEF
:1000E80003194628013A03195128033A03195A28D3
:1000F800013A031964286D284001141694159414C4
:1001080014111A1114101A147A2A4001141694158D
:10011800141514101A1094109A147A2A4001941580
:100128009414141414121A1214111A157A2A7A082B
:10013800003A03198028013A03198928033A031958
:1001480092286D2840011416141594119A119410D0
:100158009A1014101A147A2A4001141694151415BA
:1001680014101A1094109A147A2A400194159414B1
:1001780014121A1214101A1014111A157A2A40019E
:1001880094151415941414101A1014121A167A2AA5
:100198007A08003A0319A628013A0319B028033A45
:1001A8000319B928013A0319C3286D284001141608
:1001B800941514111A1194109A1014101A147A2AFA
:1001C800400114169415141514101A1094109A144A
:1001D8007A2A40019415941414121A1214101A1041
:1001E80014111A157A2A4001941514159410141034
:1001F8001A1014121A167A2A7A08003A0319DA28F9
:10020800013A0319E428033A0319ED28013A0319BE
:10021800F7286D28400114169415941414111A1116
:1002280014101A147A2A400114169415141514106F
:100238001A1094109A147A2A8631F62680317A2A6E
:10024800400114161415941414101A1094119A15C8
:100258007A2A400194151415941414101A101412C3
:100268001A167A2A7A08003A03190E29013A03194C
:100278001729033A03192029013A03192429073AAF
:1002880003192D296D2840011416941514111A11FB
:1002980094109A1014101A147A2A40019415941480
:1002A80014121A1214101A1014111A157A2A40016D
:1002B80014161415941414101A1094119A157A2AF5
:1002C800400194151415941414101A1014121A16C7
:1002D8007A2A7A08003A03194729013A031920298A
:1002E800033A03195129013A03195B29073A0319FB
:1002F80064296D284001141694119A1114111A11C9
:1003080094109A1014101A147A2A4001941594140F
:1003180014121A1214101A1014111A157A2A4001FC
:1003280014161415941414101A1094119A157A2A84
:10033800400194151415941414101A1014121A1656
:100348007A2A7A08003A03197E29013A0319892979
:10035800033A03199329013A03199C296D2840018E
:100368001416941514111A1194109A1014101A14C2
:100378007A2A400114169415141514101A109410A2
:100388009A147A2A400194159414141414121A1207
:1003980014111A157A2A7A08003A0319B329013A6E
:1003A8000319BD29033A0319C6296D2840011416FB
:1003B80094119A1114111A1194109A1014101A14F5
:1003C8007A2A400114169415141514101A10941052
:1003D8009A147A2A40019415941414121A121410BB
:1003E8001A1014111A157A2A4001141614159414A7
:1003F80014101A1094119A157A2A4001941514159C
:10040800941414101A1014121A167A2A7A08003A38
:100418000319DA29013A0319E529033A0319EE29E0
:10042800013A0319F829073A0319012A6D284001EE
:100438001416941514111A1194109A1014101A14F1
:100448007A2A400114169415141514101A109410D1
:100458009A147A2A400194159414141414121A1236
:1004680014111A157A2A400114161415941414102C
:100478001A1094119A157A2A400194151415941497
:1004880014101A1014121A167A2A7A08003A031944
:100498001B2A013A0319252A033A03192E2A013A7D
:1004A8000319372A073A0319402A6D287808003AB1
:1004B80003197228013A03199B28033A0319CC2817
:1004C800013A03190029073A03193629013A031991
:1004D8006D29033A0319A529013A0319CF290F3ABF
:1004E80003190A2A013A0319492A20290800F800A1
:1004F8003E2C400114169415141494109A101411DB
:100508001A155E2C400114169414141414111A119F
:1005180094119A155E2CFA014001B8015E2C7A08F4
:10052800003A03197D2A013A0319862A8F2A4001C5
:1005380014169415141414111A1194109A145E2C8C
:10054800400114169415141494109A1014111A15C5
:100558005E2C400114161415141494109A1094115A
:100568009A155E2C40011415141494109A109411C5
:100578009A1114121A165E2C7A08003A03199B2A4B
:10058800013A0319A42A033A0319AD2A013A0319B7
:10059800B62A8F2A400114169415141414111A112E
:1005A80094109A145E2C4001141694151414941087
:1005B8009A1014111A155E2C4001141614141411F3
:1005C8001A1194109A1094119A155E2C4001141562
:1005D8009414141494119A1114121A165E2C7A0891
:1005E800003A0319CE2A013A0319D72A033A031904
:1005F800E02A013A0319EA2A8F2A400114169415B1
:10060800141494109A1014111A155E2C4001141623
:100618009414141414111A1194119A155E2C400193
:100628009414141494119A1114111A1114121A16FC
:100638005E2C7A08003A0319012B013A03190A2B98
:10064800033A0319132B8F2A400114169415141416
:1006580014111A1194109A145E2C8631F6268231E0
:100668005E2C40011416141494109A1014111A11C7
:1006780094119A155E2C40019414141494119A1133
:1006880014111A1114121A165E2C7A08003A03195A
:10069800282B013A0319312B033A0319352B013A58
:1006A80003193F2B8F2A40011416141494109A1022
:1006B80014111A1194119A155E2C400114149411F6
:1006C8009A1114111A1194109A1014121A165E2CF9
:1006D8007A08003A0319572B013A0319612B8F2A1C
:1006E800400114169415141414111A1194109A1424
:1006F8005E2C400114169415141494109A101411B9
:100708001A155E2C400114169414141414111A119D
:1007180094119A155E2C7A08003A0319742B013A41
:1007280003197D2B033A0319862B8F2A40011416CF
:100738009415141414111A1194109A145E2C400173
:1007480014169415141494109A1014111A155E2C7A
:1007580040011416141414111A1194109A109411BB
:100768009A155E2C4001141494119A1114111A113F
:1007780094109A1014121A165E2C7A08003A03196B
:100788009A2B013A0319A32B033A0319AC2B013A0C
:100798000319B62B8F2A400114169415141414113A
:1007A8001A1194109A145E2C4001141694151414FE
:1007B80094109A1014111A155E2C400114169414F2
:1007C800141414111A1194119A155E2C40019414E2
:1007D800141494119A1114111A1114121A165E2C69
:1007E8007A08003A0319CF2B013A0319D82B033A98
:1007F8000319E12B013A0319EA2B8F2A4001141639
:10080800141494119A1114111A1194109A145E2C3C
:1008180040011416141494119A1194109A1014117A
:100828001A155E2C40011416141414111A11941080
:100838009A1094119A155E2C4001941514141411F1
:100848001A1194109A1014121A165E2C7A08003A8B
:100858000319022C013A03190C2C033A0319162C1C
:10086800013A0319202C8F2A8631F626823140015D
:10087800B8015E2C7808013A0319932A033A031940
:10088800C02A013A0319F32A073A03191D2B013A22
:100898000319492B033A03196C2B013A03198F2BBF
:1008A8000F3A0319C12B013A0319F42B033A031920
:1008B8002A2C382C080086317B268431ED30F20052
:1008C8000630F30087310F2784311530F2000630E7
:1008D800F3008731032784318B170B170030400151
:1008E800350296300319340203187B2C7C2C7F2C9C
:1008F80018109814812C181498104F30BC0001302F
:10090800BD003608673EF200FD30373DF300643025
:10091800F4000030F5008631402684317308400128
:10092800BF007208BE008431CB24843140013C08EA
:10093800F9003808031DA12CA22CB52C0A30F200AE
:100948000030F3007908C400C5014408F4004508E4
:10095800F50085312725843172088031442084319F
:10096800722C0A30BC000030BD007908C400C501F3
:100978004408BE004508BF008431CB2484314001BF
:100988003C0882317B228431722C8031342840012A
:10099800C101BD1FD02CD12CD82CBC09BD09BC0A63
:1009A8000319BD0A0130C100BF1FDB2CDC2CE32C6E
:1009B800BE09BF09BE0A0319BF0A0130C106C20138
:1009C800C3013C083D040319EA2CEB2C182D013017
:1009D800C000F52C0130BC35BD0D890BEF2C013062
:1009E800C007BD1FF82CF92CEE2C0130C235C30D01
:1009F800890BFA2C3D083F02031D042D3C083E02DA
:100A0800031C072D082D0D2D3C08BE023D08BF3BD9
:100A180042140130BD36BC0C890B0E2D0130C002CA
:100A2800031D172D182DF92C410803191C2D1D2DF8
:100A3800222DC209C309C20A0319C30A4308BD000B
:100A48004208BC000800F701F51F2B2D2C2D332D73
:100A5800F409F509F40A0319F50A0130F700F31F40
:100A6800362D372D3C2DF209F309F20A0319F30A42
:100A7800720873040319412D422D692D0130F600C7
:100A88004C2D0130F235F30D890B462D0130F60758
:100A9800F31F4F2D502D452D73087502031D562D3C
:100AA80072087402031C592D5A2D5E2D7208F40227
:100AB8007308F53B0130F336F20C890B5F2D0130DA
:100AC800F602031D682D692D502D770803196D2D29
:100AD8006E2D732DF409F509F40A0319F50A750842
:100AE800F3007408F20008007A01A6138430A60007
:100AF800A7015C30A8005230A9000F30AD00AE014C
:100B0800AF01B0018C018D01FF308E0003308F00E2
:100B1800920193019801970196019E019D01990107
:100B280008309A00A30102309F00A101A201A4018C
:100B3800A5010330AB00AC01AA014001B201B30129
:100B4800B001B101410112101C1092109C148430A4
:100B58007A01A6000800033040019800403099004F
:100B68009A0134309200B0309300FF309400343052
:100B78007D018C0090309600E030A0008D01970137
:100B8800A1018E019801A20137308F00F030990041
:100B9800FF30A3002830900090309A00E030A40085
:100BA8000D307C01C20013307B019A007D01910158
:100BB800920193019B019C019D01A501A601A7013A
:100BC80008005F3406340034003400340034003444
:100BD800003400340034003400340034003400346D
:100BE800003400340034003400340034003400345D
:100BF800003400340034003400340034003400344D
:100C0800003400340034003400340034003400343C
:100C18000034CD340634C134063400340034003492
:100C2800003401304001BA071E303A02031C1D2E61
:100C38001E2E222EBA0187311F278631013040012E
:100C4800B4070030B53D013035022C3003193402A9
:100C5800031C2F2E302E342EB401B5010130B900FB
:100C68000130BB0702303B02031C3B2E3C2E3F2EBB
:100C7800BB010130FA070800F601F701721C452E86
:100C8800462E4A2E7408F6077508F73D0130F435EC
:100C9800F50D890B4B2E0130F336F20C890B502ED3
:100CA80072087304031D592E5A2E422E7708F3003A
:100CB8007608F200080048304E019200903090000B
:100CC8002630910044308E008F010030F200003051
:100CD800F3008631CD2686310030F2000030F30073
:100CE8008631C12686314001AC01AD01080086314C
:100CF800E42686318531AF258631853178258631E0
:100D080086319126863186315F26863187311B27C9
:100D180086318631D92686310800F93043019D0095
:100D28009C0155309F0025304001C6000730C700A0
:100D380041018C129616803043019E000800400144
:100D4800460847040319A92EAA2EAF2E47088A0081
:100D580046080A00863141018C12080041019210B0
:100D68004001300831040319BA2EBB2EC02E3108B9
:100D78008A0030080A0086310800720873040319D3
:100D8800C62EC72ECC2E73084001A9007208A800F1
:100D98000800720873040319D22ED32ED82E7308B4
:100DA8004001AB007208AA00080041010C100B14A6
:100DB8000030F2000030F30087310927863108003F
:100DC800603045018D008F0191010530930092013B
:100DD800080087311527863171084001B70070086F
:100DE800B600080040011416941514159414141430
:100DF8000800640080010131890BFE2E003473085D
:100E08004001C7007208C600080073084001AF001F
:100E18007208AE00080073084001B1007208B00003
:100E280008007A011508F1001408F0000800C23023
:100E380044018C0008007A012614080041011210B0
:040E48000800080096
:020000040001F9
:0A000E008C3FFF3F9F3FFF3FFF3F85
:00000001FF
