:0400000080313428EF
:100008007E14803100308600003087000B1F0D28D9
:100018000E2832284101961E122813281B288C1EF0
:10002800162817281B288631AD26803132281C1C3B
:100038001E281F282728121C222823282728873112
:100048002C27803132289C1C2A282B283228921CE5
:100058002E282F2832288631BC2680317E100900B0
:1000680080313628F901FA012030840000308500FB
:100078001C308731072780317E10400184316B2C7A
:10008800F8005A2A4001141694119A1114111A11E1
:1000980094109A1014101A147A2A40011416941500
:1000A800141514101A1094109A147A2A40019415F1
:1000B800941414121A1214101A1014111A157A2AF8
:1000C800400114161415941414101A1094119A154A
:1000D8007A2AFA0101304001B8007A2A7A08003AEF
:1000E80003194628013A03195128033A03195A28D3
:1000F800013A031964286D284001141694159414C4
:1001080014111A1114101A147A2A4001141694158D
:10011800141514101A1094109A147A2A4001941580
:100128009414141414121A1214111A157A2A7A082B
:10013800003A03198028013A03198928033A031958
:1001480092286D2840011416141594119A119410D0
:100158009A1014101A147A2A4001141694151415BA
:1001680014101A1094109A147A2A400194159414B1
:1001780014121A1214101A1014111A157A2A40019E
:1001880094151415941414101A1014121A167A2AA5
:100198007A08003A0319A628013A0319B028033A45
:1001A8000319B928013A0319C3286D284001141608
:1001B800941514111A1194109A1014101A147A2AFA
:1001C800400114169415141514101A1094109A144A
:1001D8007A2A40019415941414121A1214101A1041
:1001E80014111A157A2A4001941514159410141034
:1001F8001A1014121A167A2A7A08003A0319DA28F9
:10020800013A0319E428033A0319ED28013A0319BE
:10021800F7286D28400114169415941414111A1116
:1002280014101A147A2A400114169415141514106F
:100238001A1094109A147A2A8731002780317A2A62
:10024800400114161415941414101A1094119A15C8
:100258007A2A400194151415941414101A101412C3
:100268001A167A2A7A08003A03190E29013A03194C
:100278001729033A03192029013A03192429073AAF
:1002880003192D296D2840011416941514111A11FB
:1002980094109A1014101A147A2A40019415941480
:1002A80014121A1214101A1014111A157A2A40016D
:1002B80014161415941414101A1094119A157A2AF5
:1002C800400194151415941414101A1014121A16C7
:1002D8007A2A7A08003A03194729013A031920298A
:1002E800033A03195129013A03195B29073A0319FB
:1002F80064296D284001141694119A1114111A11C9
:1003080094109A1014101A147A2A4001941594140F
:1003180014121A1214101A1014111A157A2A4001FC
:1003280014161415941414101A1094119A157A2A84
:10033800400194151415941414101A1014121A1656
:100348007A2A7A08003A03197E29013A0319892979
:10035800033A03199329013A03199C296D2840018E
:100368001416941514111A1194109A1014101A14C2
:100378007A2A400114169415141514101A109410A2
:100388009A147A2A400194159414141414121A1207
:1003980014111A157A2A7A08003A0319B329013A6E
:1003A8000319BD29033A0319C6296D2840011416FB
:1003B80094119A1114111A1194109A1014101A14F5
:1003C8007A2A400114169415141514101A10941052
:1003D8009A147A2A40019415941414121A121410BB
:1003E8001A1014111A157A2A4001141614159414A7
:1003F80014101A1094119A157A2A4001941514159C
:10040800941414101A1014121A167A2A7A08003A38
:100418000319DA29013A0319E529033A0319EE29E0
:10042800013A0319F829073A0319012A6D284001EE
:100438001416941514111A1194109A1014101A14F1
:100448007A2A400114169415141514101A109410D1
:100458009A147A2A400194159414141414121A1236
:1004680014111A157A2A400114161415941414102C
:100478001A1094119A157A2A400194151415941497
:1004880014101A1014121A167A2A7A08003A031944
:100498001B2A013A0319252A033A03192E2A013A7D
:1004A8000319372A073A0319402A6D287808003AB1
:1004B80003197228013A03199B28033A0319CC2817
:1004C800013A03190029073A03193629013A031991
:1004D8006D29033A0319A529013A0319CF290F3ABF
:1004E80003190A2A013A0319492A20290800F800A1
:1004F8004A2C400114169415141494109A101411CF
:100508001A156A2C400114169414141414111A1193
:1005180094119A156A2CFA014001B8016A2C7A08DC
:10052800003A03197D2A013A0319862A8F2A4001C5
:1005380014169415141414111A1194109A146A2C80
:10054800400114169415141494109A1014111A15C5
:100558006A2C400114161415141494109A1094114E
:100568009A156A2C40011415141494109A109411B9
:100578009A1114121A166A2C7A08003A03199B2A3F
:10058800013A0319A42A033A0319AD2A013A0319B7
:10059800B62A8F2A400114169415141414111A112E
:1005A80094109A146A2C400114169415141494107B
:1005B8009A1014111A156A2C4001141614141411E7
:1005C8001A1194109A1094119A156A2C4001141556
:1005D8009414141494119A1114121A166A2C7A0885
:1005E800003A0319CE2A013A0319D72A033A031904
:1005F800E02A013A0319EA2A8F2A400114169415B1
:10060800141494109A1014111A156A2C4001141617
:100618009414141414111A1194119A156A2C400187
:100628009414141494119A1114111A1114121A16FC
:100638006A2C7A08003A0319012B013A03190A2B8C
:10064800033A0319132B8F2A400114169415141416
:1006580014111A1194109A146A2C873100278231C8
:100668006A2C40011416141494109A1014111A11BB
:1006780094119A156A2C40019414141494119A1127
:1006880014111A1114121A166A2C7A08003A03194E
:10069800282B013A0319312B033A0319352B013A58
:1006A80003193F2B8F2A40011416941514141411A2
:1006B8001A1194109A146A2C4001141614149410E8
:1006C8009A1014111A1194119A156A2C40011414D5
:1006D80094119A1114111A1194109A1014121A16CE
:1006E8006A2C7A08003A0319572B013A0319602B30
:1006F800033A03196A2B8F2A40011416941514140F
:1007080014111A1194109A146A2C40011416941595
:10071800141494109A1014111A156A2C4001141606
:100728009414141414111A1194119A156A2C7A0835
:10073800003A0319802B013A0319892B033A03194C
:10074800922B8F2A400114169415141414111A119F
:1007580094109A146A2C40011416941514149410C9
:100768009A1014111A156A2C400114161414141135
:100778001A1194109A1094119A156A2C40011414A5
:1007880094119A1114111A1194109A1014121A161D
:100798006A2C7A08003A0319A62B013A0319AF2BE1
:1007A800033A0319B82B013A0319C22B8F2A4001C7
:1007B80014169415141414111A1194109A146A2CFE
:1007C800400114169415141494109A1014111A1543
:1007D8006A2C400114169414141414111A1194114B
:1007E8009A156A2C40019414141494119A11141136
:1007F8001A1114121A166A2C7A08003A0319DB2BFC
:10080800013A0319E42B033A0319ED2B013A0319B2
:10081800F62B8F2A40011416141494119A111411EE
:100828001A1194109A146A2C400114161414941175
:100838009A1194109A1014111A156A2C4001141662
:10084800141414111A1194109A1094119A156A2CF0
:1008580040019415141414111A1194109A101412BA
:100868001A166A2C7A08003A03190E2C013A031951
:10087800182C033A0319222C013A03192C2C8F2A1D
:100888008731002782314001B8016A2C7808013A83
:100898000319932A033A0319C02A013A0319F32AC0
:1008A800073A03191D2B013A0319492B033A031977
:1008B800752B013A03199B2B0F3A0319CD2B013ADB
:1008C8000319002C033A0319362C442C08008631EE
:1008D80085268431F730F2000630F3008731192776
:1008E80084312130F2000630F30087310D2784313E
:1008F8008B170B170030400135029630031934026C
:100908000318872C882C8B2C181098148D2C1814ED
:1009180098104F30BC000130BD003608673EF20029
:10092800FD30373DF3006430F4000030F5008631C7
:100938004A26843173084001BF007208BE00843122
:10094800D724843140013C08F9003808031DAD2C38
:10095800AE2CC12C0A30F2000030F3007908C40034
:10096800C5014408F4004508F50085313325843174
:1009780072088031442084317E2C0A30BC0000305B
:10098800BD007908C400C5014408BE004508BF0081
:100998008431D724843140013C0882317B22843160
:1009A8007E2C803134284001C101BD1FDC2CDD2C98
:1009B800E42CBC09BD09BC0A0319BD0A0130C100F9
:1009C800BF1FE72CE82CEF2CBE09BF09BE0A03198C
:1009D800BF0A0130C106C201C3013C083D04031926
:1009E800F62CF72C242D0130C000012D0130BC3528
:1009F800BD0D890BFB2C0130C007BD1F042D052D33
:100A0800FA2C0130C235C30D890B062D3D083F0273
:100A1800031D102D3C083E02031C132D142D192D07
:100A28003C08BE023D08BF3B42140130BD36BC0C39
:100A3800890B1A2D0130C002031D232D242D052DED
:100A480041080319282D292D2E2DC209C309C20AD0
:100A58000319C30A4308BD004208BC000800F70197
:100A6800F51F372D382D3F2DF409F509F40A031920
:100A7800F50A0130F700F31F422D432D482DF209E6
:100A8800F309F20A0319F30A7208730403194D2DC6
:100A98004E2D752D0130F600582D0130F235F30D2D
:100AA800890B522D0130F607F31F5B2D5C2D512D5C
:100AB80073087502031D622D72087402031C652DEC
:100AC800662D6A2D7208F4027308F53B0130F3367F
:100AD800F20C890B6B2D0130F602031D742D752D58
:100AE8005C2D77080319792D7A2D7F2DF409F509E6
:100AF800F40A0319F50A7508F3007408F2000800EF
:100B08007A01A6138430A600A7015C30A8005230F1
:100B1800A9000F30AD00AE01AF01B0018C018D010D
:100B2800FF308E0003308F009201930198019701E6
:100B380096019E019D01990108309A00A301023097
:100B48009F00A101A201A401A5010330AB00AC01E3
:100B5800AA014001B201B301B001B1014101121073
:100B68001C1092109C1484307A01A60008000330EF
:100B780040019800403099009A0134309200B0301A
:100B88009300FF30940034307D018C009030960043
:100B9800E030A0008D019701A1018E019801A2010A
:100BA80037308F00F0309900FF30A30028309000D4
:100BB80090309A00E030A4000D307C01C200133060
:100BC8007B019A007D019101920193019B019C0197
:100BD8009D01A501A601A701080069340634003467
:100BE800003400340034003400340034003400345D
:100BF800003400340034003400340034003400344D
:100C0800003400340034003400340034003400343C
:100C1800003400340034003400340034003400342C
:100C280000340034003400340034D7340634CB3474
:100C38000634003400340034003401304001BA076F
:100C48001E303A02031C292E2A2E2E2EBA01873175
:100C58002927863101304001B4070030B53D013005
:100C680035022C3003193402031C3B2E3C2E3E2E39
:100C7800B401B5010130BB0702303B02031C452E0D
:100C8800462E492EBB010130FA070800F601F7018C
:100C9800721C4F2E502E542E7408F6077508F73D17
:100CA8000130F435F50D890B552E0130F336F20C71
:100CB800890B5A2E72087304031D632E642E4C2E62
:100CC8007708F3007608F200080048304E019200D9
:100CD800903090002630910044308E008F01003013
:100CE800F2000030F3008631D72686310030F2005A
:100CF8000030F3008631CB2686314001AC01AD01CE
:100D080008008631EE2686318531BB25863185314E
:100D18008425863186319B2686318631692686313F
:100D28008731252786318631E32686310800F93058
:100D380043019D009C0155309F002F304001C600A3
:100D48000730C70041018C129616803043019E007F
:100D580008004001460847040319B32EB42EB92EE3
:100D680047088A0046080A00863141018C120800AB
:100D7800410192104001300831040319C42EC52ED8
:100D8800CA2E31088A0030080A0086310800720825
:100D980073040319D02ED12ED62E73084001A90052
:100DA8007208A8000800720873040319DC2EDD2EEF
:100DB800E22E73084001AB007208AA000800410146
:100DC8000C100B140030F2000030F30087311327A9
:100DD80086310800603045018D008F019101053092
:100DE80093009201080087311F278631710840015E
:100DF800B7007008B60008004001141694151415C1
:100E0800941414140800640080010131890B082F20
:100E1800003473084001C7007208C6000800730850
:100E28004001AF007208AE00080073084001B1002D
:100E38007208B00008007A011508F1001408F000E3
:100E48000800C23044018C0008007A01261408000A
:080E580041011210080008001E
:020000040001F9
:0A000E008C3FFF3F9F3FFF3FFF3F85
:00000001FF
