:0400000080313428EF
:100008007E14803100308600003087000B1F0D28D9
:100018000E28322841011C1C122813281B28121CE8
:10002800162817281B2883318F23803132289C1CDF
:100038001E281F282728921C222823282728833196
:10004800562380313228961E2A282B2832288C1EC7
:100058002E282F2832288331472380317E1009002B
:1000680080313628F001F101F201F301F401F501C4
:10007800F6017E1040018231D72AFB00532A400145
:10008800141694119A1114111A1194109A1014102C
:100098001A14732A400114169415141514101A1002
:1000A80094109A14732A40019415941414121A1275
:1000B80014101A1014111A15732A40011416141565
:1000C800941414101A1094119A15732AF601732AAD
:1000D8007608003A03194328013A03194E28033ACF
:1000E80003195728013A031961286A284001141690
:1000F8009415941414111A1114101A14732A400127
:1001080014169415141514101A1094109A14732AAE
:10011800400194159414141414121A1214111A1577
:10012800732A7608003A03197A28013A03198328B2
:10013800033A03198C286A284001141614159411DF
:100148009A1194109A1014101A14732A4001141654
:100158009415141514101A1094109A14732A400147
:100168009415941414121A1214101A1014111A1542
:10017800732A400194151415941414101A101412AB
:100188001A16732A7608003A0319A028013A0319A7
:10019800AA28033A0319B328013A0319BD286A2883
:1001A80040011416941514111A1194109A10141071
:1001B8001A14732A400114169415141514101A10E1
:1001C80094109A14732A40019415941414121A1254
:1001D80014101A1014111A15732A400194151415C5
:1001E800941014101A1014121A16732A7608003A6A
:1001F8000319D428013A0319DE28033A0319E7281A
:10020800013A0319F1286A28400114169415941428
:1002180014111A1114101A14732A40011416941583
:10022800141514101A1094109A14732A8331782311
:100238008031732A400114161415941414101A10DE
:1002480094119A15732A40019415141594141410D6
:100258001A1014121A16732A7608003A0319082974
:10026800013A03191129033A03191A29013A031902
:100278001E29073A031927296A28400114169415DC
:1002880014111A1194109A1014101A14732A400198
:100298009415941414121A1214101A1014111A1511
:1002A800732A400114161415941414101A1094117A
:1002B8009A15732A400194151415941414101A10E1
:1002C80014121A16732A7608003A03194129013ABA
:1002D80003191A29033A03194B29013A0319552915
:1002E800073A03195E296A284001141694149411D8
:1002F8009A1114111A1114101A14732A4001941522
:10030800941414121A1214101A1014111A15732AAC
:10031800400114161415941414101A1094119A15F7
:10032800732A400194151415941414101A101412F9
:100338001A16732A7608003A03197829013A03191C
:100348008229033A03198C29013A031995296A2845
:1003580040011416941514111A1194109A101410BF
:100368001A14732A400114169415141514101A102F
:1003780094109A14732A40019415941414141412A6
:100388001A1214111A15732A7608003A0319AC299F
:10039800013A0319B629033A0319BF296A2840010B
:1003A800141694119A1114111A1194109A10141009
:1003B8001A14732A400114169415141514101A10DF
:1003C80094109A14732A40019415941414121A1252
:1003D80014101A1014111A15732A40011416141542
:1003E800941414101A1094119A15732A4001941534
:1003F8001415941414101A1014121A16732A760865
:10040800003A0319D329013A0319DE29033A0319DB
:10041800E729013A0319F129073A0319FA296A2841
:1004280040011416941514111A1194109A101410EE
:100438001A14732A400114169415141514101A105E
:1004480094109A14732A40019415941414141412D5
:100458001A1214111A15732A40011416141594143B
:1004680014101A1094119A15732A40019415141532
:10047800941414101A1014121A16732A7608003AD3
:100488000319142A013A03191E2A033A0319272AC1
:10049800013A0319302A073A0319392A6A287B08CE
:1004A800003A03196C28013A03199528033A0319ED
:1004B800C628013A0319FA28073A03193029013ADC
:1004C80003196729033A03199E29013A0319C82910
:1004D8000F3A0319032A013A0319422A1A29080074
:1004E8007A01A6138430A600A7013A30A80052303A
:1004F800A9000F30AD00AE01AF01B0018C018D0134
:10050800FF308E0003308F0092019301980197010C
:1005180096019E019D01990108309A00A3010430BB
:100528009F00A101A201A401A501AB01AC01AA0190
:10053800F001F101F901FA01410112101C109210A9
:100548009C1484307A01A60008000330400198000A
:1005580099019A0134309200F0309300FF309400F2
:1005680034307D018C00F0309600E030A0008D0121
:100578009701A1018E019801A20137308F00F03058
:100588009900FF30A30028309000F0309A00E03046
:10059800A4009101920193019B019C019D01A50179
:1005A800A601A70108008331372382319330FB006D
:1005B8000330FC0083318A2382310130FB00033091
:1005C800FC0083317F2382318B170B1701307302B4
:1005D8002C30031972020318F22AF32AF72A400171
:1005E80018109814FA2A40011814981074088031C9
:1005F80041208231EA2A803134280130F207003064
:10060800F33D02307302583003197202031C0D2B9C
:100618000E2B192BF201F3010130F4070A30740292
:10062800031C172B182B192BF4010130F507033085
:100638007502031C202B212B242BF5010130F60712
:100648000800F93043019D009C0155309F0092300D
:100658004001A0000330A10041018C1296168030A1
:1006680043019E00080083316F2383318231A92220
:10067800833182317422833183312523833183315D
:1006880064238331080040012008210403194D2BFD
:100698004E2B532B21088A0020080A008331410180
:1006A8008C1208004101921079087A0403195D2B15
:1006B8005E2B632B7A088A0079080A0083310800C8
:1006C80041010C100B140030FB000030FC0083319A
:1006D800852383310800603045018D008F01910129
:1006E8000530930092010800400114169415141562
:1006F8009414141408007C084001A1007B08A00091
:1007080008007C08F8007B08F70008007C08FA005D
:100718007B08F900080041011210080008000800D1
:020000040001F9
:0A000E008C3FFF3F9F3FFF3FFF3F85
:00000001FF
