:0400000080313428EF
:1000060008007E14803100308600003087000B1F08
:100016000D280E2832284101961E122813281B2867
:100026008C1E162817281B288F313127803132283D
:100036001C1C1E281F282728121C22282328272894
:100046008E31CA26803132289C1C2A282B28322839
:10005600921C2E282F2832288F31222780317E109D
:10006600090080313628FA01FB0152308400003045
:1000760085001C308E31F5268031A030840000309A
:10008600850028308E31F52680317E10400185317D
:100096005D2DF800622A4001141694119A1114116C
:1000A6001A1194109A1014101A14822A4001141668
:1000B6009415141514101A1094109A14822A4001DB
:1000C6009415941414121A1214101A1014111A15E5
:1000D600822A400114161415941414101A1094113F
:1000E6009A15822AFB0101304001E900822A7B0829
:1000F600003A03194E28013A03195928033A0319FD
:100106006228013A03196C287528400114169415C3
:10011600941414111A1114101A14822A4001141678
:100126009415141514101A1094109A14822A40016A
:1001360094159414141414121A1214111A15822AEE
:100146007B08003A03198828013A03199128033AD3
:1001560003199A28752840011416141594119A113A
:1001660094109A1014101A14822A40011416941529
:10017600141514101A1094109A14822A400194151A
:10018600941414121A1214101A1014111A15822A21
:10019600400194151415941414101A1014121A16FA
:1001A600822A7B08003A0319AE28013A0319B828B7
:1001B600033A0319C128013A0319CB2875284001CF
:1001C6001416941514111A1194109A1014101A1466
:1001D600822A400114169415141514101A1094103E
:1001E6009A14822A40019415941414121A121410A7
:1001F6001A1014111A15822A400194151415941018
:1002060014101A1014121A16822A7B08003A0319BF
:10021600E228013A0319EC28033A0319F528013AB2
:100226000319FF2875284001141694159414141107
:100236001A1114101A14822A400114169415141552
:1002460014101A1094109A14822A8E31FB268031CB
:10025600822A400114161415941414101A109411BD
:100266009A15822A400194151415941414101A1024
:1002760014121A16822A7B08003A03191629013A23
:1002860003191F29033A03192829013A03192C29AE
:10029600073A0319352975284001141694151411C7
:1002A6001A1194109A1014101A14822A40019415E7
:1002B600941414121A1214101A1014111A15822AF0
:1002C600400114161415941414101A1094119A154A
:1002D600822A400194151415941414101A1014123D
:1002E6001A16822A7B08003A03194F29013A031984
:1002F6002829033A03195929013A03196329073AA8
:1003060003196C2975284001141694119A111411B9
:100316001A1194109A1014101A14822A4001941576
:10032600941414121A1214101A1014111A15822A7F
:10033600400114161415941414101A1094119A15D9
:10034600822A400194151415941414101A101412CC
:100356001A16822A7B08003A03198629013A0319DC
:100366009129033A03199B29013A0319A4297528EF
:1003760040011416941514111A1194109A101410A1
:100386001A14822A400114169415141514101A1002
:1003960094109A14822A4001941594141414141279
:1003A6001A1214111A15822A7B08003A0319BB295E
:1003B600013A0319C529033A0319CE2975284001C4
:1003C600141694119A1114111A1194109A101410EB
:1003D6001A14822A400114169415141514101A10B2
:1003E60094109A14822A40019415941414121A1225
:1003F60014101A1014111A15822A40011416141515
:10040600941414101A1094119A15822A4001941506
:100416001415941414101A1014121A16822A7B0832
:10042600003A0319E229013A0319ED29033A03199F
:10043600F629013A0319002A073A0319092A7528E9
:1004460040011416941514111A1194109A101410D0
:100456001A14822A400114169415141514101A1031
:1004660094109A14822A40019415941414141412A8
:100476001A1214111A15822A40011416141594140E
:1004860014101A1094119A15822A40019415141505
:10049600941414101A1014121A16822A7B08003AA1
:1004A6000319232A013A03192D2A033A0319362A76
:1004B600013A03193F2A073A0319482A752878088A
:1004C600003A03197A28013A0319A328033A0319B3
:1004D600D428013A03190829073A03193E29013A93
:1004E60003197529033A0319AD29013A0319D729C6
:1004F6000F3A0319122A013A0319512A282908002A
:10050600F800522C400114169415141494109A10E5
:1005160014111A15722C4001141694141414141183
:100526001A1194119A15722CFB014001E901722CE3
:100536007B08003A0319852A013A03198E2A972A5D
:10054600400114169415141414111A1194109A14C7
:10055600722C400114169415141494109A10141148
:100566001A15722C400114161415141494109A10AE
:1005760094119A15722C40011415141494109A10A3
:1005860094119A1114121A16722C7B08003A031948
:10059600A32A013A0319AC2A033A0319B52A013AE8
:1005A6000319BE2A972A400114169415141414111F
:1005B6001A1194109A14722C4001141694151414DE
:1005C60094109A1014111A15722C40011416141452
:1005D60014111A1194109A1094119A15722C400144
:1005E60014159414141494119A1114121A16722CC8
:1005F6007B08003A0319D62A013A0319DF2A033A7F
:100606000319E82A013A0319F22A972A4001141617
:100616009415141494109A1014111A15722C400182
:1006260014169414141414111A1194119A15722C88
:1006360040019414141494119A1114111A111412DD
:100646001A16722C7B08003A0319092B013A031972
:10065600122B033A03191B2B972A400114169415E3
:10066600141414111A1194109A14722C8E31FB263C
:100676008231722C40011416141494109A1014111D
:100686001A1194119A15722C400194141414941191
:100696009A1114111A1114121A16722C7B08003AA8
:1006A6000319302B013A0319392B033A03193D2B51
:1006B600013A0319472B972A40011416941514146E
:1006C60014111A1194109A14722C40011416141451
:1006D60094109A1014111A1194119A15722C400143
:1006E600141494119A1114111A1194109A101412C8
:1006F6001A16722C7B08003A03195F2B013A03196C
:10070600682B033A0319722B972A40011416941585
:10071600141414111A1194109A14722C4001141600
:100726009415141494109A1014111A15722C400171
:1007360014169414141414111A1194119A15722C77
:100746007B08003A0319882B013A0319912B033AC7
:1007560003199A2B972A4001141694151414141190
:100766001A1194109A14722C40011416941514142C
:1007760094109A1014111A15722C400114161414A0
:1007860014111A1194109A1094119A15722C400192
:10079600141494119A1114111A1194109A10141217
:1007A6001A16722C7B08003A0319AE2B013A03196C
:1007B600B72B033A0319C02B013A0319CA2B972A00
:1007C600400114169415141414111A1194109A1445
:1007D600722C400114169415141494109A101411C6
:1007E6001A15722C400114169414141414111A11AB
:1007F60094119A15722C40019414141494119A11A0
:1008060014111A1114121A16722C7B08003A0319C5
:10081600E32B013A0319EC2B033A0319F52B013AA2
:100826000319FE2B972A40011416141494119A11D9
:1008360014111A1194109A14722C400114161414DF
:1008460094119A1194109A1014111A15722C4001D1
:100856001416141414111A1194109A1094119A154E
:10086600722C40019415141414111A1194109A1034
:1008760014121A16722C7B08003A0319162C013A28
:100886000319202C033A03192A2C013A0319342C94
:10089600972A8E31FB2682314001E901722C7808B5
:1008A600013A03199B2A033A0319C82A013A031984
:1008B600FB2A073A0319252B013A0319512B033A50
:1008C60003197D2B013A0319A32B0F3A0319D52BD4
:1008D600013A0319082C033A03193E2C4C2C080044
:1008E60040012A0886008701403FAC00413FAD0029
:1008F6002C0884002D0885001200253A031D842C3F
:10090600852C422D2A088600870101308107413156
:100916000318810AD201D3010030E800FF30D40069
:10092600FF30D5002A0886008701403FB100413FCD
:10093600B20031088400320885001200643A0319B7
:10094600A52CA62CB02C3108840032088500120094
:10095600693A031DAF2CB02C382D2B088600870171
:1009660001088400850102308107003FB300013F82
:10097600B4003108013EAC000030323DAD002A081B
:10098600860087012C08C03F2D08C13F2030B700E4
:10099600B41BCE2CD02C0130D12C0030B00001304D
:1009A600B7023708A03E860087010A30F200003001
:1009B600F3003408F5003308F4008631AB268431A1
:1009C6007308F9007208F8008F31612784317808BE
:1009D600303E81000A304001A0000030A1003408FA
:1009E600A3003308A2008531F62584314001210891
:1009F600B4002008B300330834040319032D042D72
:100A0600092D3708031D082D092DD22C3708031987
:100A16000D2D0E2D312D30080319122D132D312DCC
:100A26000130B7023708A03E860087012D308100CD
:100A3600312D3708A03E860087010108AC00AD01C4
:100A46002C08F2002D08F3002908F5002808F40008
:100A560086315226843101304001B70720303706EF
:100A6600031D362D372D1C2D5C2D40012A088600CE
:100A760087010130810741310318810A5C2D2A085C
:100A860086008701403FAC00413FAD002C08840042
:100A96002D0885000008AE00AF012E08F2002F08D1
:100AA600F3002908F5002808F4008631522684311F
:100AB600382D08008F3173278531D130F200073089
:100AC600F3008E31E3268531FC30F2000630F30068
:100AD6008E31EF2685318B170B174F304001A00062
:100AE6000130A1006608673EF200FD30673DF30065
:100AF6006430F4000030F5008F31E127853173084A
:100B06004001A3007208A2008531F6258531400117
:100B16002008EB006908031D912D922DA62D0A30A1
:100B2600F2000030F3006B084101C800C901480813
:100B3600F4004908F5008631AB268531720880310C
:100B46004C208531BD2D0A30A0000030A1006B0875
:100B56004101C800C90148084001A20041014908F5
:100B66004001A3008531F6258531400120088231F8
:100B76008322853140016A080319C22DC32D702DC9
:100B8600EA01C030C0000030C1009030C2006508E4
:100B9600C4006408C3008F31C32785314001D101E9
:100BA600E92D8F3140278531003A0319DB2DDC2DE5
:100BB600D42D40015108C03E860087010108F2008D
:100BC6008E31D026853101304001D1075108C03E13
:100BD600860087010108031DF12DF22DD42D18146E
:100BE600702D803134284001A501A11FFB2DFC2D5D
:100BF600032EA009A109A00A0319A10A0130A50024
:100C0600A31F062E072E0E2EA209A309A20A031958
:100C1600A30A0130A506A601A7012008210403198D
:100C2600152E162E432E0130A400202E0130A0359D
:100C3600A10D890B1A2E0130A407A11F232E242EE5
:100C4600192E0130A635A70D890B252E2108230262
:100C5600031D2F2E20082202031C322E332E382E7F
:100C66002008A2022108A33B26140130A136A00CBD
:100C7600890B392E0130A402031D422E432E242E49
:100C860025080319472E482E4D2EA609A709A60AA0
:100C96000319A70A2708A1002608A000080074085F
:100CA60075040319572E582E5E2E74087504031DFD
:100CB6005D2E5E2E632E72088731FF278631AA2E9F
:100CC60074088600870149311600010403196C2E49
:100CD6006D2E8C2E7408860087014931403F4001F5
:100CE600A000413FA1007408860087014231403FC1
:100CF600A200413FA3002308803AA4002108803ABD
:100D06002402031D882E2008220203188B2E8C2E07
:100D1600AA2E74088600870142317408840075087B
:100D26008500003F4001A000013FA100403F200791
:100D36008400413F213D85007208800074088600CA
:100D4600870142310130810741310318810A0800C9
:100D5600F701F51FAF2EB02EB72EF409F509F40AE8
:100D66000319F50A0130F700F31FBA2EBB2EC02E69
:100D7600F209F309F20A0319F30A72087304031954
:100D8600C52EC62EED2E0130F600D02E0130F235DE
:100D9600F30D890BCA2E0130F607F31FD32ED42E7E
:100DA600C92E73087502031DDA2E72087402031C1D
:100DB600DD2EDE2EE22E7208F4027308F53B0130BA
:100DC600F336F20C890BE32E0130F602031DEC2EEE
:100DD600ED2ED42E77080319F12EF22EF72EF409F4
:100DE600F509F40A0319F50A7508F3007408F20008
:100DF600080001304001EC070A306C02031C042F86
:100E0600052F182FEC017A08031D0A2F0B2F132F1D
:100E160004308E31D82686318E31CD268631182F74
:100E260002308E31D82686310F2F01304001E2077D
:100E36000030E33D00306302643003196202031C94
:100E4600252F262F282FE201E3010130ED0702307E
:100E56006D02031C2F2F302F332FED010130FB07BE
:100E660008007A01A6138430A600A7014A30A8001C
:100E76005230A9000F30AD00AE01AF01B0018C01B8
:100E86008D01FF308E0003308F009201930198018F
:100E9600970196019E019D01990110309A00A301C8
:100EA60002309F00A101A201A401A5010330AB00FD
:100EB600AC01AA014001E001E101DE01DF014101CF
:100EC60012101C1092109C1484307A01A60008009F
:100ED600033040019800403099009A013430920066
:100EE600B0309300FF30940034307D018C00903098
:100EF6009600E030A0008D019701A1018E019801B6
:100F0600A20137308F00F0309900FF30A30028305F
:100F1600900090309A00E030A4000D307C01C200B1
:100F260013307B019A007D019101920193019B018F
:100F36009C019D01A501A601A701080089340F3473
:100F46000034003400340034D0340E34003400341D
:100F560040340F340034003400340034003400349C
:100F660000340034003400340034003400340034DB
:100F760000340034003400340034003400340034CB
:100F860000340034003400340034003416340F3496
:100F9600F33407340034003400340034EA2F8E3141
:100FA600DD26873171084001E5007008E400013054
:100FB600FA000130EA001810F22F8E31DD26873153
:100FC60071084001E7007008E600FA01F22F7A087E
:100FD600003A0319D22F013A0319E02FF22F080025
:100FE600720873040319F82FF92FFE2F73084001B6
:0A0FF600D7007208D60008000800BA
:101D94004101121008007A012614080072084E014D
:101DA4008D000800C23044018C000800F000700867
:101DB4007A019F0008007A011508F1001408F00068
:101DC400080073084001DF007208DE000800730891
:101DD4004001DD007208DC00080073084001EF00D8
:101DE4007208EE000800640080010131890BF62EB0
:101DF4000034400114169415141594141414080096
:101E0400603045018D008F019101053093009201EE
:101E1400080041010C100B140030F2000030F300F4
:101E24008E31E9268F3108007208730403191B2FC1
:101E34001C2F212F73084001D9007208D800080014
:101E44004101921040015E085F0403192A2F2B2FD1
:101E5400302F5F088A005E080A008F3108004001B5
:101E64006E086F040319372F382F3D2F6F088A002F
:101E74006E080A008F3141018C120800F201410101
:101E8400101F452F462F4D2F4E01911E4A2F4B2FC9
:101E94004D2F0130F20072080800F93043019D0013
:101EA4009C0155309F0003304001EE000030EF00EC
:101EB40041018C129616803043019E000800F91BE4
:101EC400642F652F662F722F78094001A0007909CD
:101ED400A100A00A0319A10A2008F8002108F900AA
:101EE40008008F3102278F3187316B278F3187317B
:101EF40034278F318F314F278F318F3189278F319D
:101F04008E31D4268F318F310B278F310800483022
:101F14004E019200903090002630910044308E00A3
:101F24008F010030F2000030F3008F3116278F311B
:101F34000030F2000030F3008731F3278F31400185
:101F4400DA01DB01080040013B08BF003A08BE008B
:101F5400B62F3908A9003808A8003E30AA003C086A
:101F6400AB00843173248F3140013E0884003F0864
:101F740085001200031DBF2FC02FAB2FB801B9017C
:101F8400080043304001C5004008C600C701C8012D
:101F9400C901CF01D0014630B8000030B900420871
:101FA400BB004108BA004530BC008F31A5278F31F2
:101FB4004001400848078600870181010800F601B6
:101FC400F701721CE62FE72FEB2F7408F60775084C
:101FD400F73D0130F435F50D890BEC2F0130F33664
:101FE400F20C890BF12F72087304031DFA2FFB2FD7
:101FF400E32F7708F3007608F200080025346434F0
:062004000D340A34003423
:020000040001F9
:0A000E008C3FFF3F9F3FFF3FFF3F85
:00000001FF
