:0400000080313428EF
:100008007E14803100308600003087000B1F0D28D9
:100018000E28322841011C1C122813281B28121CE8
:10002800162817281B2881313721803132289C1C3B
:100038001E281F282728921C222823282728813198
:10004800062180313228961E2A282B2832288C1E19
:100058002E282F2832288031F82080317E10090080
:1000680080313628F601F701F801F9017E104001C8
:100078008031A1287A01A6138430A600A7013A305E
:10008800A8005230A9000F30AD00AE01AF01B00199
:100098008C018D01FF308E0003308F009201930197
:1000A8009801970196019E019D01990108309A00D7
:1000B800A30104309F00A101A201A401A501AB0185
:1000C800AC01AA01F601F701F401F5014101121092
:1000D8001C1092109C1484307A01A600080003308A
:1000E8004001980099019A0134309200F030930051
:1000F800FF30940034307D018C00F0309600E03001
:10010800A0008D019701A1018E019801A20137304D
:100118008F00F0309900FF30A30028309000F030B5
:100128009A00E030A4009101920193019B019C0187
:100138009D01A501A601A70108008031D8208031C2
:100148003B30FA000130FB00813132218031E83048
:10015800FA000030FB008131282180318B170B1702
:10016800013079022C30031978020318BC28BD2805
:10017800C128400118109814B42840011814981088
:10018800B42880313428F93043019D009C01553052
:100198009F003A30F0000130F10041018C129616B0
:1001A800803043019E00080081311F218031803159
:1001B8007320803180313E2080318031C7208031EA
:1001C80081311421803108000130F8070030F93DF1
:1001D80002307902583003197802031CF428F528F4
:1001E800F728F801F9010800700871040319FD28BF
:1001F800FE28032971088A0070080A00813141012C
:100208008C120800410192107408750403190D2915
:100218000E29132975088A0074080A00813108001C
:1002280041010C100B140030FA000030FB00813142
:100238002D2181310800603045018D008F01910129
:1002480005309300920108007B08F1007A08F0005D
:1002580008007B08F3007A08F20008007B08F50024
:100268007A08F4000800410112100800080008008C
:020000040001F9
:0A000E008C3FFF3F9F3FFF3FFF3F85
:00000001FF
