:0400000080313428EF
:100008007E14803100308600003087000B1F0D28D9
:100018000E28322841011C1C122813281B28121CE8
:10002800162817281B2886314E26803132289C1C1A
:100038001E281F282728921C222823282728863193
:10004800122680313228961E2A282B2832288C1E08
:100058002E282F2832288631032680317E10090069
:1000680080313628FB01FC01FD014001A601A701F2
:10007800A801A901AA017E1040018531092DF600C9
:10008800582A4001141694119A1114111A11941037
:100098009A1014101A14782A40011416941514157D
:1000A80014101A1094109A14782A40019415941474
:1000B80014121A1214101A1014111A15782A400161
:1000C80014161415941414101A1094119A15782AE9
:1000D800FD0101304001AA00782A7D08003A031981
:1000E8004528013A03195028033A03195928013AB7
:1000F800031963286C2840011416941594141411DC
:100108001A1114101A14782A40011416941514158B
:1001180014101A1094109A14782A40019415941403
:10012800141414121A1214111A15782A7D08003A98
:1001380003197F28013A03198828033A03199128DB
:100148006C2840011416141594119A1194109A10E1
:1001580014101A14782A4001141694151415141042
:100168001A1094109A14782A4001941594141412B1
:100178001A1214101A1014111A15782A400194151D
:100188001415941414101A1014121A16782A7D08CB
:10019800003A0319A528013A0319AF28033A0319AD
:1001A800B828013A0319C2286C284001141694157E
:1001B80014111A1194109A1014101A14782A400164
:1001C80014169415141514101A1094109A14782AE9
:1001D80040019415941414121A1214101A101411C0
:1001E8001A15782A400194151415941014101A1031
:1001F80014121A16782A7D08003A0319D928013AE8
:100208000319E328033A0319EC28013A0319F628DD
:100218006C28400114169415941414111A11141012
:100228001A14782A400114169415141514101A106B
:1002380094109A14782A863135268031782A40011C
:1002480014161415941414101A1094119A15782A67
:10025800400194151415941414101A1014121A1637
:10026800782A7D08003A03190D29013A031916293D
:10027800033A03191F29013A03192329073A0319D5
:100288002C296C2840011416941514111A11941075
:100298009A1014101A14782A400194159414141200
:1002A8001A1214101A1014111A15782A400114166B
:1002B8001415941414101A1094119A15782A4001E0
:1002C80094151415941414101A1014121A16782A66
:1002D8007D08003A03194629013A03191F29033AF0
:1002E80003195029013A03195A29073A03196329AE
:1002F8006C2840011416941494119A1114111A11AF
:1003080014101A14782A40019415941414121A120D
:1003180014101A1014111A15782A400114161415FD
:10032800941414101A1094119A15782A40019415EF
:100338001415941414101A1014121A16782A7D0819
:10034800003A03197D29013A03198729033A031949
:100358009129013A03199A296C2840011416941519
:1003680014111A1194109A1014101A14782A4001B2
:1003780014169415141514101A1094109A14782A37
:10038800400194159414141414121A1214111A1505
:10039800782A7D08003A0319B129013A0319BB29C3
:1003A800033A0319C4296C284001141694119A11B0
:1003B80014111A1194109A1014101A14782A400162
:1003C80014169415141514101A1094109A14782AE7
:1003D80040019415941414121A1214101A101411BE
:1003E8001A15782A400114161415941414101A10AA
:1003F80094119A15782A4001941514159414141020
:100408001A1014121A16782A7D08003A0319D829E6
:10041800013A0319E329033A0319EC29013A0319AC
:10042800F629073A0319FF296C2840011416941578
:1004380014111A1194109A1014101A14782A4001E1
:1004480014169415141514101A1094109A14782A66
:10045800400194159414141414121A1214111A1534
:10046800782A400114161415941414101A109411B3
:100478009A15782A400194151415941414101A101A
:1004880014121A16782A7D08003A0319192A013A13
:100498000319232A033A03192C2A013A0319352A86
:1004A800073A03193E2A6C287608003A031971287E
:1004B800013A03199A28033A0319CB28013A031978
:1004C800FF28073A03193529013A03196C29033A19
:1004D8000319A329013A0319CD290F3A0319082A48
:1004E800013A0319472A1F290800F8003C2C40014B
:1004F80014169415141494109A1014111A155C2CCF
:10050800400114169414141414111A1194119A1504
:100518005C2CFD014001AA015C2C7D08003A0319FE
:100528007B2A013A0319842A8D2A4001141694154E
:10053800141414111A1194109A145C2C40011416F6
:100548009415141494109A1014111A155C2C400167
:1005580014161415141494109A1094119A155C2CEE
:1005680040011415141494109A1094119A1114122D
:100578001A165C2C7D08003A0319992A013A0319C6
:10058800A22A033A0319AB2A013A0319B42A8D2A7D
:10059800400114169415141414111A1194109A1475
:1005A8005C2C400114169415141494109A1014110C
:1005B8001A155C2C40011416141414111A119410F5
:1005C8009A1094119A155C2C400114159414141463
:1005D80094119A1114121A165C2C7D08003A03190A
:1005E800CC2A013A0319D52A033A0319DE2A013A1B
:1005F8000319E82A8D2A400114169415141494102E
:100608009A1014111A155C2C400114169414141421
:1006180014111A1194119A155C2C40019414141495
:1006280094119A1114111A1114121A165C2C7D08BF
:10063800003A0319FF2A013A0319082B033A031950
:10064800112B8D2A400114169415141414111A1123
:1006580094109A145C2C8631352682315C2C40012A
:100668001416141494109A1014111A1194119A153E
:100678005C2C40019414141494119A1114111A1139
:1006880014121A165C2C7D08003A0319262B013A1D
:1006980003192F2B033A0319332B013A03193D2B66
:1006A8008D2A40011416141494109A1014111A115A
:1006B80094119A155C2C4001141494119A11141178
:1006C8001A1194109A1014121A165C2C7D08003A0C
:1006D8000319552B013A03195F2B8D2A4001141673
:1006E8009415141414111A1194109A145C2C4001C6
:1006F80014169415141494109A1014111A155C2CCD
:10070800400114169414141414111A1194119A1502
:100718005C2C7D08003A0319722B013A03197B2BD4
:10072800033A0319842B8D2A4001141694151414C6
:1007380014111A1194109A145C2C40011416941573
:10074800141494109A1014111A155C2C40011416E4
:10075800141414111A1194109A1094119A155C2CEF
:100768004001141494119A1114111A1194109A102A
:1007780014121A165C2C7D08003A0319982B013ABA
:100788000319A12B033A0319AA2B013A0319B42B15
:100798008D2A400114169415141414111A1194106A
:1007A8009A145C2C400114169415141494109A1081
:1007B80014111A155C2C40011416941414141411F5
:1007C8001A1194119A155C2C400194141414941164
:1007D8009A1114111A1114121A165C2C7D08003A79
:1007E8000319CD2B013A0319D62B033A0319DF2B32
:1007F800013A0319E82B8D2A400114161414941198
:100808009A1114111A1194109A145C2C40011416A0
:10081800141494119A1194109A1014111A155C2C2E
:1008280040011416141414111A1194109A109411EA
:100838009A155C2C40019415141414111A11941073
:100848009A1014121A165C2C7D08003A0319002C11
:10085800013A03190A2C033A0319142C013A031913
:100868001E2C8D2A8631352682314001AA015C2C46
:100878007808013A0319912A033A0319BE2A013A62
:100888000319F12A073A03191B2B013A0319472BBD
:10089800033A03196A2B013A03198D2B0F3A0319EE
:1008A800BF2B013A0319F22B033A0319282C362CD3
:1008B8000800F501F11F612C622C692CF009F1097F
:1008C800F00A0319F10A0130F500F31F6C2C6D2CA6
:1008D800742CF209F309F20A0319F30A0130F50638
:1008E800F601F7017008710403197B2C7C2CA92CE4
:1008F8000130F400862C0130F035F10D890B802C85
:100908000130F407F11F892C8A2C7F2C0130F63531
:10091800F70D890B8B2C71087302031D952C700839
:100928007202031C982C992C9E2C7008F2027108F4
:10093800F33B76140130F136F00C890B9F2C013013
:10094800F402031DA82CA92C8A2C75080319AD2CB8
:10095800AE2CB32CF609F709F60A0319F70A77083B
:10096800F1007608F0000800F501F31FBC2CBD2C3F
:10097800C42CF209F309F20A0319F30A0130F5004D
:10098800F11FC72CC82CCD2CF009F109F00A031966
:10099800F10A700871040319D22CD32CFA2C0130F7
:1009A800F400DD2C0130F035F10D890BD72C013026
:1009B800F407F11FE02CE12CD62C71087302031DFB
:1009C800E72C70087202031CEA2CEB2CEF2C700841
:1009D800F2027108F33B0130F136F00C890BF02C70
:1009E8000130F402031DF92CFA2CE12C75080319C7
:1009F800FE2CFF2C042DF209F309F20A0319F30A5D
:100A08007308F1007208F00008008531F32585317C
:100A18005230F0000630F100863148268531BC306E
:100A2800F0000530F10086313C2685318B170B1715
:100A38000030400129029630031928020318252D99
:100A4800262D292D181098142B2D181498102A08C3
:100A5800031D2F2D302D432D0A30F0000030F100FA
:100A68007B08F900FA017908F2007A08F30084316A
:100A7800B824853170088031432085311C2D0A3017
:100A8800F0000030F1007B08F900FA017908F20063
:100A98007A08F30084315D24853170088231792227
:100AA80085311C2D803134287A01A6138430A600A4
:100AB800A7013A30A8005230A9000F30AD00AE01AE
:100AC800AF01B0018C018D01FF308E0003308F0023
:100AD800920193019801970196019E019D01990148
:100AE80008309A00A30104309F00A101A201A401CB
:100AF800A501AB01AC01AA014001A601A701A4010F
:100B0800A501410112101C1092109C1484307A0126
:100B1800A600080003304001980099019A0134307A
:100B28009200F0309300FF30940034307D018C0047
:100B3800F0309600E030A0008D019701A1018E01F0
:100B48009801A20137308F00F0309900FF30A300E0
:100B580028309000F0309A00E030A4009101920112
:100B680093019B019C019D01A501A601A701080015
:100B780001304001A8070030A93D013029022C307E
:100B880003192802031CC92DCA2DD52DA801A901B6
:100B98000130FB0765307B02031CD32DD42DD52DE6
:100BA800FB010130FC0702307C02031CDC2DDD2D2B
:100BB800E02DFC010130FD070800F93043019D00DC
:100BC8009C0155309F0051304001A0000630A10023
:100BD80041018C129616803043019E000800863130
:100BE8002C26853185318E258531853158258531ED
:100BF8008531E1258531863121268531080040017E
:100C0800200821040319092E0A2E0F2E21088A0014
:100C180020080A00863141018C1208004101921017
:100C280040012408250403191A2E1B2E202E2508FE
:100C38008A0024080A008631080041010C100B14B0
:100C48000030F0000030F10086314226863108007D
:100C5800603045018D008F019101053093009201AC
:100C6800080040011416941514159414141408005F
:100C780071084001A1007008A00008007108400137
:100C8800A3007008A200080071084001A5007008C0
:0E0C9800A40008004101121008000800080026
:020000040001F9
:0A000E008C3FFF3F9F3FFF3FFF3F85
:00000001FF
